:020000040800F2
:100000000050002005190008690300086B03000870
:100010006D0300086F030008710300080000000072
:100020000000000000000000000000007303000852
:10003000750300080000000077030008790300083A
:100040004D1900084D1900084D1900084D190008F8
:100050004D1900084D1900084D1900084D190008E8
:100060004D1900084D1900084D1900084D190008D8
:100070004D1900084D1900084D1900084D190008C8
:10008000810300084D1900084D1900084D1900089A
:100090004D1900084D1900084D1900084D190008A8
:1000A0004D1900084D1900084D1900084D19000898
:1000B0004D1900084D1900084D1900084D19000888
:1000C0004D1900084D1900084D1900084D19000878
:1000D0004D1900084D190008910300084D1900083A
:1000E0004D1900084D1900084D19000800000000C6
:1000F0000000000000000000000000000000000000
:0C01000000000000000000005FF808F1A3
:10010C0010B5054C237833B9044B13B10448AFF345
:10011C0000800123237010BD0C00002000000000A3
:10012C00C419000808B5034B1BB103490348AFF3CE
:10013C00008008BD0000000010000020C419000859
:10014C0030B589B000240494059406940794184B98
:10015C009A6942F010029A619A6902F010020192B7
:10016C00019A9A6942F020029A619A6902F020027F
:10017C000292029A9A6942F004029A619B6903F016
:10018C0004030393039B0B4D22464FF40051284666
:10019C0001F0AAF94FF4005304930123059306943C
:1001AC000223079304A9284601F0B2F809B030BD28
:1001BC00001002400010014000B583B00A4B5A6990
:1001CC0042F001025A615B6903F001030193019B48
:1001DC0000221146102001F035FB102001F066FBC7
:1001EC0003B05DF804FB00BF001002402DE9F041A4
:1001FC000268214B9A4207D0642314221F492048DD
:10020C0000F040FABDE8F0810C461E4B1D881E4BD9
:10021C001D806B18142B23DDC5F11406B6B2174FD5
:10022C00DFF8688032464146781901F0AFFB164B77
:10023C0000221A80A21B08EB0601384601F0A6FB2F
:10024C00143D2C440F4B1C800A2210490C4800F022
:10025C00AFFC0F4B1A68136823F004031360CBE751
:10026C000A460A490548284401F090FB064B1B88B6
:10027C001C44044B1C80E7E7004400407C00002039
:10028C0090000020280000202A0000207000002090
:10029C002C00002072B6FEE708B50A480A4B036032
:1002AC004FF4E133436000238360C36003610C228D
:1002BC0042618361C36100F0B6F900B908BDFFF774
:1002CC00E9FF00BF900000200044004000B591B051
:1002DC00202200210DEB020001F066FB00230193AC
:1002EC000293039304930593012306934FF48033F5
:1002FC00079306A800F0F0FC70B90F2301930123BB
:10030C000293002103910491059101A800F024FFB0
:10031C0020B911B05DF804FBFFF7BCFFFFF7BAFF83
:10032C0008B500F09FFCFFF7D1FFFFF709FFFFF7BF
:10033C0043FFFFF7B1FF0A220549064800F038FCDD
:10034C00054B1A68136823F004031360FEE700BF23
:10035C0070000020900000202C000020FEE7FEE73B
:10036C00FEE7FEE7FEE770477047704708B500F000
:10037C008BFC08BD08B5024801F0B0F908BD00BF00
:10038C002C00002008B5024800F098FA08BD00BF08
:10039C009000002082B00E4B9A6942F001029A61E3
:1003AC009A6902F001020092009ADA6942F08052D6
:1003BC00DA61DB6903F080530193019B054A5368B2
:1003CC0023F0E06343F00073536002B0704700BF4A
:1003DC00001002400000014070B586B0002302936B
:1003EC000393049305930268254B9A4201D006B0FF
:1003FC0070BD044603F5E633DA6942F40032DA6183
:10040C00DA6902F400320092009A9A6942F004020E
:10041C009A619B6903F004030193019B04230293EB
:10042C000223039303230593164E02A9304600F0D2
:10043C006FFF082302930025039504950DEB030130
:10044C00304600F065FF1048104B03604560856036
:10045C008023C360056145618561C56101F060F869
:10046C0058B9094BA3635C6200221146262001F0A7
:10047C00E9F9262001F01AFAB9E7FFF70BFFF0E7CC
:10048C0000440040000801402C0000206C00024099
:10049C000268D36823F0C003D360202380F83D307A
:1004AC0070470268D36823F49073D3600268536971
:1004BC0023F001035361036B012B05D0202380F83B
:1004CC003E300023036370470268D36823F01003A7
:1004DC00D360F3E790F83D30DBB2212B01D0022042
:1004EC0070478368B3F5805F16D0036A5A1C0262AA
:1004FC001A7803685A60C38C013B9BB2C3844BB916
:10050C000268D36823F08003D3600268D36843F099
:10051C004003D360002070470369002BE5D1036AC8
:10052C001B880268C3F308035360036A0233036237
:10053C00E1E7000038B504460268136923F4405320
:10054C00C1680B43136183680269134342691A4300
:10055C000168CB6823F4B05323F00C031343CB6036
:10056C000268536923F4407381690B435361026839
:10057C00124B9A421FD000F0ABFE00EB800000EB58
:10058C00800063689B00B0FBF3F00D4DA5FB0032BF
:10059C005109642202FB110213013233A5FB032320
:1005AC005B0903F0F00202EB011203F00F03216868
:1005BC0013448B6038BD00F09BFEDEE70038014031
:1005CC001F85EB512DE9F04105460F46164698461E
:1005DC00069C2B681B6837EA03030CBF012300231E
:1005EC00B3421DD1B4F1FF3FF3D02CB100F058FB56
:1005FC00A0EB0800A042ECD92A68D36823F4D0738E
:10060C00D3602A68536923F001035361202385F8D2
:10061C003D3085F83E30002385F83C30032000E067
:10062C000020BDE8F08158B310B5044690F83D3079
:10063C000BB3242384F83D302268D36823F4005391
:10064C00D3602046FFF776FF2268136923F49043AA
:10065C0013612268536923F02A0353612268D3681B
:10066C0043F40053D36000202064202384F83D30F1
:10067C0084F83E3010BD80F83C30FFF7ADFED8E773
:10068C00012070472DE9F04182B01E4690F83D30B4
:10069C00DBB2202B54D104460D469046002954D091
:1006AC00002A54D090F83C30012B52D0012380F812
:1006BC003C3000230364212380F83D3000F0F0FA35
:1006CC000746A4F82480A4F82680A368B3F5805FBD
:1006DC0005D04FF00008002384F83C3011E023696A
:1006EC0013B14FF00008F6E7A8460025F3E738F8F9
:1006FC00023B2268C3F308035360E38C013B9BB2BB
:10070C00E384E38C9BB273B100963B4600228021BC
:10071C002046FFF757FFF0B9002DE8D015F8012B54
:10072C0023685A60E9E700963B46002240212046A8
:10073C00FFF748FF034680B9202284F83D2000E0F3
:10074C000223184602B0BDE8F0810123F9E701232A
:10075C00F7E70223F5E70323F3E70323F1E77047F9
:10076C0008B50168CB6823F04003CB60202380F8E8
:10077C003D30FFF7F4FF002008BD7047704770470D
:10078C0010B5446A23685A6994F83D30DBB2212BCA
:10079C0010D023685A6902F0400294F83E30DBB264
:1007AC00222B11D0236C43F0100323642046FFF757
:1007BC00E6FF10BD02F08002002AEAD00023E38499
:1007CC002046FFF765FEE4E7002AEBD00023E38523
:1007DC002046FFF766FEE5E708B5406A0023C385AF
:1007EC00C384FFF7CCFF08BD90F83E30DBB2222B60
:1007FC005FD18368B3F5805F45D0826AB3F5805FC3
:10080C0004D0002B4CD10369002B49D103685B68E1
:10081C001370836A01338362C38D013B9BB2C38522
:10082C00002B48D100B583B00268D36823F02003B5
:10083C00D3600268D36823F48073D3600268536971
:10084C0023F001035361202380F83E30036B012B0E
:10085C002CD1002303630268D36823F01003D36008
:10086C0003681A6812F0100F06D0002201921A6861
:10087C0001925B680193019B818DFFF7B7FC00200F
:10088C0003B05DF804FB0269002AB6D1826A0368E2
:10089C005B68C3F308031380836A02338362BBE78C
:1008AC0003685B6803F07F031370B2E7FFF765FF23
:1008BC00E5E70220704700207047000030B583B098
:1008CC00044602681368D068516913F00F0505D10E
:1008DC0013F0200F02D010F0200F19D12DB111F010
:1008EC00010119D110F4907F16D1216B012975D01B
:1008FC0013F0800F03D010F0800F40F0D58013F070
:10090C00400F03D010F0400F40F0D28003B030BD48
:10091C002046FFF769FFF9E713F0010F06D010F43A
:10092C00807F03D0226C42F00102226413F0040F8A
:10093C0004D019B1226C42F00202226413F0020FAF
:10094C0004D019B1226C42F00402226413F0080F97
:10095C0007D010F0200F00D119B1226C42F0080220
:10096C002264226C002AD1D013F0200F02D010F098
:10097C00200F21D123685B6903F04003226C12F035
:10098C00080F00D123B32046FFF78BFD23685A696B
:10099C0012F0400F18D05A6922F040025A61A36B32
:1009AC0073B1454A5A63A06B00F04CFE0028ADD0E1
:1009BC00A06B436B9847A9E72046FFF715FFD9E7D3
:1009CC002046FFF7DCFEA1E72046FFF7D8FE9DE7A7
:1009DC002046FFF7D4FE0023236497E713F0100F93
:1009EC0086D010F0100F83D000230193136801936D
:1009FC0053680193019B536913F0400F31D0A16BE5
:100A0C000B685B689BB2002B80D0A08D98427FF660
:100A1C007DAFE3858B69202B07D1A18DE38DC91A9E
:100A2C0089B22046FFF7E2FB70E7D36823F48073AA
:100A3C00D3602268536923F0010353612268536920
:100A4C0023F040035361202384F83E3000232363BA
:100A5C002268D36823F01003D360A06B00F0D0FDA4
:100A6C00DBE7A18DE38DC91A89B2E38D9BB2002B14
:100A7C003FF44CAF00293FF449AFD36823F4907393
:100A8C00D3602268536923F001035361202384F857
:100A9C003E30002323632268D36823F01003D36015
:100AAC002046FFF7A3FB31E72046FFF713FD2DE7A8
:100ABC002046FFF755FE29E7E507000808B5406A10
:100ACC00036B012B02D0FFF759FE08BD818D49083D
:100ADC00FFF78CFBF9E708B5436A0268126812F05D
:100AEC00200F16D10022DA851968CA6822F48072A8
:100AFC00CA6019684A6922F001024A6119684A6998
:100B0C0022F040024A61202283F83E201A6B012A0F
:100B1C0006D01A6B012A09D01846FFF72EFE08BD25
:100B2C001968CA6822F01002CA60F2E7998D18465B
:100B3C00FFF75CFBF3E7000030B583B004461346C7
:100B4C008162A28500250564222280F83E20826BFA
:100B5C0014489062A26B1448D062A26B13481063C5
:100B6C00A26B556320680A46011DA06B00F00EFDB8
:100B7C00019523681A6801925A680192019A84F8C7
:100B8C003C50DA6842F48072DA602268536943F0B0
:100B9C00010353612268536943F0400353612846B3
:100BAC0003B030BDE30A0008C90A00088D0700082D
:100BBC0090F83E30DBB2202B24D131B33AB390F80D
:100BCC003C30012B25D010B582B00446012380F8AF
:100BDC003C300363FFF7B0FF034618B9226B012AC0
:100BEC0003D00123184602B010BD002201922268E6
:100BFC0011680191516801910199D16841F010017E
:100C0C00D160EFE70223184670470123FBE701236D
:100C1C00F9E70223F7E7000010B504460E4B1878ED
:100C2C004FF47A73B3FBF0F30C4A1068B0FBF3F09B
:100C3C0000F04AFE68B90F2C01D901200AE000220D
:100C4C0021464FF0FF3000F0FDFD054B1C600020ED
:100C5C0000E0012010BD00BF0000002008000020B3
:100C6C000400002008B5074A136843F01003136012
:100C7C00032000F0D5FD0F20FFF7CEFFFFF78AFB16
:100C8C00002008BD00200240034A1168034B1B786A
:100C9C000B441360704700BFD400002000000020FC
:100CAC00014B1868704700BFD400002082B0084B7D
:100CBC001B68084AA2FB03235B0A00FB03F00190AC
:100CCC0000BF019B5A1E0192002BF9D102B0704754
:100CDC0008000020D34D6210002800F0F18170B59F
:100CEC0082B00446036813F0010F2CD0AA4B5B684A
:100CFC0003F00C03042B1DD0A74B5B6803F00C0313
:100D0C00082B12D06368B3F5803F41D0002B55D12E
:100D1C0003F1804303F504331A6822F480321A601D
:100D2C001A6822F480221A6037E09B4B5B6813F43C
:100D3C00803FE7D0984B1B6813F4003F03D06368E7
:100D4C00002B00F0BF81236813F0020F75D0924B7B
:100D5C005B6813F00C0F5FD08F4B5B6803F00C03D8
:100D6C00082B54D02369002B00F089808B4B012277
:100D7C001A60FFF795FF0546874B1B6813F0020FAF
:100D8C0074D1FFF78DFF401B0228F5D903209EE19B
:100D9C00814A136843F480331360636843B3FFF7ED
:100DAC007FFF05467C4B1B6813F4003FCBD1FFF74C
:100DBC0077FF401B6428F5D9032088E1B3F5A02FF9
:100DCC0009D0754B1A6822F480321A601A6822F422
:100DDC0080221A60E1E703F18043A3F53C331A68E3
:100DEC0042F480221A601A6842F480321A60D4E706
:100DFC00FFF756FF0546684B1B6813F4003FA2D063
:100E0C00FFF74EFF401B6428F5D903205FE1624BCE
:100E1C005B6813F4803FA5D15F4B1B6813F0020F86
:100E2C0003D02369012B40F04F815B4A136823F0F8
:100E3C00F803616943EAC1031360236813F0080FD8
:100E4C0032D0A369002B5BD0554B01221A60FFF7FF
:100E5C0027FF0546504B5B6A13F0020F21D1FFF7B9
:100E6C001FFF401B0228F5D9032030E14A4A1368C2
:100E7C0023F0F803616943EAC1031360DDE7474BD4
:100E8C0000221A60FFF70CFF0546434B1B6813F05A
:100E9C00020FD2D0FFF704FF401B0228F5D9032024
:100EAC0015E10120FFF702FF236813F0040F00F097
:100EBC009780394BDB6913F0805F33D1364BDA699D
:100ECC0042F08052DA61DB6903F080530193019B9D
:100EDC000125344B1B6813F4807F25D0E368012B6C
:100EEC0036D0002B4CD103F1804303F504331A6A3E
:100EFC0022F001021A621A6A22F004021A622CE031
:100F0C00274B00221A60FFF7CBFE0546224B5B6A8B
:100F1C0013F0020FC8D0FFF7C3FE401B0228F5D90F
:100F2C000320D4E00025D4E71E4A136843F48073F1
:100F3C001360FFF7B5FE06461A4B1B6813F4807F4F
:100F4C00CCD1FFF7ADFE801B6428F5D90320BEE0A1
:100F5C00114A136A43F001031362E36873B3FFF79A
:100F6C009FFE06460C4B1B6A13F0020F37D1FFF79E
:100F7C0097FE801B41F288339842F3D90320A6E0F8
:100F8C00052B11D0044B1A6A22F001021A621A6A5C
:100F9C0022F004021A62E0E7001002400000424214
:100FAC0080044242007000404D4B1A6A42F0040229
:100FBC001A621A6A42F001021A62CEE7FFF770FE5B
:100FCC000646474B1B6A13F0020F08D0FFF768FE6A
:100FDC00801B41F288339842F3D9032077E0E5B9BE
:100FEC00E369002B72D03E4A526802F00C02082AC8
:100FFC0056D0022B17D03B4B00221A60FFF750FE45
:10100C000446374B1B6813F0007F47D0FFF748FEB0
:10101C00001B0228F5D9032059E0314AD36923F08B
:10102C008053D361DCE72F4B00221A60FFF738FEA8
:10103C0005462B4B1B6813F0007F06D0FFF730FEE4
:10104C00401B0228F5D9032041E0236AB3F5803F09
:10105C001AD023494B6823F47413226A606A024342
:10106C0013434B601F4B01221A60FFF719FE044615
:10107C001B4B1B6813F0007F0ED1FFF711FE001BFA
:10108C000228F5D9032022E0154A536823F40033D3
:10109C00A1680B435360DCE7002018E0002016E049
:1010AC00012B16D00E4B5B6803F48031226A9142FF
:1010BC0011D103F47013626A93420ED1002006E042
:1010CC0001207047012002E0012000E0002002B066
:1010DC0070BD0120FBE70120F9E70120F7E700BF15
:1010EC00001002406000424210B487B0164C94E8E5
:1010FC000F000DF1180C0CE90F00238AADF8043029
:10110C00124B5B6803F00C02082A03D0104807B09E
:10111C0010BC7047C3F38342624412F8102C13F4D2
:10112C00803F0CD0094B5B68C3F34043634413F816
:10113C00143C074800FB02F0B0FBF3F0E7E705486E
:10114C0000FB02F0E3E700BFDC19000800100240CE
:10115C0000127A0000093D00002800F0A08070B554
:10116C000446534B1B6803F007038B420BD2504AC7
:10117C00136823F007030B431360136803F0070392
:10118C008B4240F08E80236813F0020F17D013F0BF
:10119C00040F04D0474A536843F4E0635360236858
:1011AC0013F0080F04D0434A536843F46053536060
:1011BC00404A536823F0F003A068034353600D4684
:1011CC00236813F0010F31D06368012B20D0022B60
:1011DC0025D0384A126812F0020F64D035494A689B
:1011EC0022F0030213434B60FFF75AFD0646314BC6
:1011FC005B6803F00C036268B3EB820F16D0FFF749
:10120C004FFD801B41F288339842F0D9032045E012
:10121C00284A126812F4003FE0D101203EE0254A32
:10122C00126812F0007FD9D1012037E0204B1B68E7
:10123C0003F00703AB420AD91D4A136823F00703D6
:10124C002B431360136803F00703AB422DD12368C3
:10125C0013F0040F06D0174A536823F4E063E168D7
:10126C000B435360236813F0080F07D0114A5368DF
:10127C0023F46053216943EAC1035360FFF734FF41
:10128C000C4B5B68C3F303130B4AD35CD8400B4B7A
:10129C0018600B4B1868FFF7BFFC002070BD0120D5
:1012AC0070470120FAE70120F8E70120F6E700BFBC
:1012BC000020024000100240F01900080800002035
:1012CC0004000020014B1868704700BF0800002084
:1012DC0008B5FFF7F7FF044B5B68C3F30223034A1F
:1012EC00D35CD84008BD00BF00100240001A0008B3
:1012FC0008B5FFF7E7FF044B5B68C3F3C223034A4F
:10130C00D35CD84008BD00BF00100240001A000892
:10131C00F0B482B000263546A0E0002A58D0012A4D
:10132C0010D1CE680EE06A4FBA4251D048D9694FFD
:10133C00BA424DD007F58037BA4249D0A7F580178D
:10134C00BA4245D0FF2B57D88446FF2B57D8AC0058
:10135C00DCF800200F27A74022EA070206FA04F463
:10136C002243CCF800204A6812F0805F75D05A4AAC
:10137C00946944F001049461926902F001020192B3
:10138C00019AAC08A71C554A52F8272005F0030710
:10139C00BF004FF00F0C0CFA07FC22EA0C0C504A61
:1013AC00904232D002F58062904271D002F5806298
:1013BC0090426FD002F58062904224D0042225E046
:1013CC00A7F58017BA4203D007F58037BA42B9D1D6
:1013DC008A687AB1012A08D044610826B2E7CE683F
:1013EC000836AFE7CE680C36ACE704610826A9E7EF
:1013FC000026A7E70426A5E700F1040CA5E7A5F154
:10140C000804A400A4E7032200E00022BA4042EA48
:10141C000C020234314F47F824204A6812F4803F02
:10142C003AD0304C22681A4322604A6812F4003FCA
:10143C0038D02C4C62681A4362604A6812F4801FE0
:10144C0036D0284CA2681A43A2604A6812F4001FD6
:10145C0034D0244CE2681343E36001350B6833FA53
:10146C0005F231D00124AC4023409C42F5D14A68AE
:10147C00122AB7D03FF657AF022AB0D07FF64DAF45
:10148C00032AB5D0112A7FF45DAFCE68043659E734
:10149C000122BBE70222B9E7124C226822EA0302BE
:1014AC002260C2E70F4C626822EA03026260C4E762
:1014BC000C4CA26822EA0302A260C6E7094CE2685F
:1014CC0022EA0303E360C8E702B0F0BC704700BF38
:1014DC0000002110000031100010024000000140FB
:1014EC0000080140000401400AB101617047090481
:1014FC000161704770B4066CC56B0124B4406C601C
:10150C00046863604368102B05D003689960036816
:10151C00DA6070BC704703689A600368D960F8E7BA
:10152C0060B310B402460168154B0B441548A0FB80
:10153C0003031B099B001364134BD363022382F830
:10154C002130086820F47F5020F0300053689468F4
:10155C002343D46823431469234354692343946974
:10156C002343D469234303430B600020906301237E
:10157C0082F8213082F8200010BC7047012070479F
:10158C00F8FFFDBFCDCCCCCC0000024038B590F8B4
:10159C002040012C32D0012480F8204090F82140CA
:1015AC00012C04D0002380F82030022038BD0446E2
:1015BC00022084F821000020A0632568286820F010
:1015CC00010028602046FFF795FFE36A5BB12268B3
:1015DC00136843F00E0313602268136843F0010391
:1015EC0013600020E2E72268136823F00403136001
:1015FC002268136843F00A031360EDE70220D5E775
:10160C0090F82130022B06D004238363002380F84A
:10161C002030012070470268136823F00E0313601A
:10162C000268136823F001031360036CC16B012281
:10163C0002FA03F34B6080F82120002380F820305D
:10164C001846704708B590F82130022B03D00423BC
:10165C008363012008BD0268136823F00E03136036
:10166C000268136823F0010313600368194A93425C
:10167C0014D0143293421FD0143293421ED0143221
:10168C0093421ED0143293421ED01432934202D095
:10169C004FF0807203E04FF4801200E001220E4BF9
:1016AC005A60012380F82130002380F82030436BEE
:1016BC006BB198470020CDE71022F0E74FF4807211
:1016CC00EDE74FF48052EAE74FF48032E7E7002071
:1016DC00C0E700BF080002400000024038B5C36BF1
:1016EC001A6804682568016C04238B40134235D0BA
:1016FC0015F0040F32D0236813F0200F03D12368A8
:10170C0023F0040323600368434A934214D0143239
:10171C00934218D01432934217D01432934217D0FC
:10172C001432934217D01432934202D04FF080629D
:10173C0003E04FF4800200E00422384B5A60C36A85
:10174C0003B1984738BD4022F7E74FF48062F4E7C5
:10175C004FF48042F1E74FF48022EEE702238B40F6
:10176C0013423CD015F0020F39D0236813F0200F30
:10177C0006D1236823F00A032360012380F821306B
:10178C000368254A934214D0143293421CD014326D
:10179C0093421BD0143293421BD0143293421BD071
:1017AC001432934202D04FF0007203E04FF4001257
:1017BC0000E00222194B5A60002380F82030836A23
:1017CC00002BBFD09847BDE72022F3E74FF40072FF
:1017DC00F0E74FF40052EDE74FF40032EAE708234C
:1017EC0003FA01F11142ADD015F0080FAAD023680D
:1017FC0023F00E032360026CC16B012303FA02F287
:10180C004A60836380F82130002380F82030036B1A
:10181C00002B97D0984795E7080002400000024043
:10182C00074AD36823F4E0631B041B0C000200F48A
:10183C00E060184340F0BF6040F40030D060704767
:10184C0000ED00E030B4174BDB68C3F30223C3F1A7
:10185C000704042C28BF04241D1D062D01D9033BAD
:10186C0000E000234FF0FF3505FA04F421EA0401EF
:10187C00994005FA03F322EA03031943002809DB14
:10188C000901C9B200F1604000F5614080F8001315
:10189C0030BC704700F00F000901C9B2024B19545B
:1018AC00F6E700BF00ED00E014ED00E0002807DBD8
:1018BC0000F01F02400901239340024A42F82030F5
:1018CC00704700BF00E100E00138B0F1807F0AD220
:1018DC00064B5860064AF02182F8231000209860CD
:1018EC0007221A6070470120704700BF10E000E02B
:1018FC0000ED00E0704700000C480D490D4A002334
:10190C0002E0D458C4500433C4188C42F9D30A4AA8
:10191C000A4C002301E013600432A242FBD3FFF710
:10192C00E9FF00F00FF8FEF7FBFC70470000002009
:10193C000C000020101A00080C000020D800002019
:10194C00FEE7000070B500260C4D0D4C641BA41076
:10195C00A64209D100F030F800260A4D0A4C641B4F
:10196C00A410A64205D170BD55F8043B984701362A
:10197C00EEE755F8043B98470136F2E7081A0008E1
:10198C00081A0008081A00080C1A00080A449142A8
:10199C0000F1FF3300D1704710B511F8014B9142A3
:1019AC0003F8014FF9D110BD03460244934200D114
:1019BC00704703F8011BF9E7F8B500BFF8BC08BC89
:1019CC009E467047F8B500BFF8BC08BC9E467047F1
:1019DC0002030405060708090A0B0C0D0E0F101064
:1019EC0001020000000000000000000001020304DE
:0C19FC00060708090000000001020304B7
:041A080031010008A0
:041A0C000D010008C0
:0C1A100001000000100000000024F400A1
:0400000508001905D1
:00000001FF
