:020000040800F2
:1000000000500020751100088502000887020008D2
:10001000890200088B0200088D0200080000000021
:100020000000000000000000000000008F02000837
:1000300091020008000000009302000895020008E9
:10004000BD110008BD110008BD110008BD11000858
:10005000BD110008BD110008BD110008BD11000848
:10006000BD110008BD110008BD110008BD11000838
:10007000BD110008BD110008BD110008BD11000828
:10008000BD110008BD110008BD110008BD11000818
:10009000BD110008BD110008BD110008BD11000808
:1000A000BD110008BD110008BD110008BD110008F8
:1000B000BD110008BD110008BD110008BD110008E8
:1000C000BD110008BD110008BD110008BD110008D8
:1000D000BD110008BD110008BD110008BD110008C8
:1000E000BD110008BD110008BD110008000000008E
:1000F0000000000000000000000000000000000000
:0C01000000000000000000005FF808F1A3
:10010C0010B5054C237833B9044B13B10448AFF345
:10011C0000800123237010BD70000020000000003F
:10012C00841A000808B5034B1BB103490348AFF30D
:10013C00008008BD0000000074000020841A000834
:10014C0038B505220546094C1A2303FB00439B5C7A
:10015C007E2B02D00132D2B2F4E70A2301321A20EC
:10016C0000FB0541024800F05DF938BDB01A0008EB
:10017C009C00002072B6FEE700B591B02022002151
:10018C000DEB020001F03AF8002301930293039364
:10019C0004930593012306934FF48033079306A829
:1001AC0000F092FA70B90F230193012302930021FE
:1001BC0003910491059101A800F0C6FC20B911B07F
:1001CC005DF804FBFFF7D6FFFFF7D4FF10B594B032
:1001DC0000F02CFAFFF7D0FF00F0ECFE00F026FF49
:1001EC0000F03EFF13E06A461F4906A801F00EF826
:1001FC0064231E2206A91D4800F014F94FF4005187
:10020C001B4800F06FFE41F2883000F033FA0320F7
:10021C00FFF796FF0023009301930293039304933B
:10022C00CDF813304FF47A7301220EA9114800F067
:10023C0066F904460028E1D19DF83830BB2BDDD19E
:10024C009DF838307E2BCED04FF47A7301220EA954
:10025C00084800F054F99DF8382014AB234403F8F7
:10026C00502C0134E4B2EBE7C01E0008E000002083
:10027C00001001409C000020FEE7FEE7FEE7FEE7D1
:10028C00FEE770477047704708B500F0E1F908BD0C
:10029C0082B00E4B9A6942F001029A619A6902F09F
:1002AC0001020092009ADA6942F08052DA61DB694D
:1002BC0003F080530193019B054A536823F0E063DC
:1002CC0043F00073536002B0704700BF001002404F
:1002DC000000014038B504460268136923F440530A
:1002EC00C1680B43136183680269134342691A4363
:1002FC000168CB6823F4B05323F00C031343CB6099
:10030C000268536923F4407381690B43536102689B
:10031C00124B9A421FD000F0D3FC00EB800000EB94
:10032C00800063689B00B0FBF3F00D4DA5FB003221
:10033C005109642202FB110213013233A5FB032382
:10034C005B0903F0F00202EB011203F00F032168CA
:10035C0013448B6038BD00F0C3FCDEE7003801406D
:10036C001F85EB512DE9F04105460F461646984680
:10037C00069C2B681B6837EA03030CBF0123002380
:10038C00B3421DD1B4F1FF3FF3D02CB100F06CF9A6
:10039C00A0EB0800A042ECD92A68D36823F4D073F0
:1003AC00D3602A68536923F001035361202385F835
:1003BC003D3085F83E30002385F83C30032000E0CA
:1003CC000020BDE8F08158B310B5044690F83D30DC
:1003DC000BB3242384F83D302268D36823F40053F4
:1003EC00D3602046FFF776FF2268136923F490430D
:1003FC0013612268536923F02A0353612268D3687E
:10040C0043F40053D36000202064202384F83D3053
:10041C0084F83E3010BD80F83C3000F03BFED8E74D
:10042C00012070472DE9F04182B01E4690F83D3016
:10043C00DBB2202B54D104460D469046002954D0F3
:10044C00002A54D090F83C30012B52D0012380F874
:10045C003C3000230364212380F83D3000F004F984
:10046C000746A4F82480A4F82680A368B3F5805F1F
:10047C0005D04FF00008002384F83C3011E02369CC
:10048C0013B14FF00008F6E7A8460025F3E738F85B
:10049C00023B2268C3F308035360E38C013B9BB21D
:1004AC00E384E38C9BB273B100963B46002280211F
:1004BC002046FFF757FFF0B9002DE8D015F8012BB7
:1004CC0023685A60E9E700963B460022402120460B
:1004DC00FFF748FF034680B9202284F83D2000E056
:1004EC000223184602B0BDE8F0810123F9E701238D
:1004FC00F7E70223F5E70323F3E70323F1E72DE9FD
:10050C00F04182B01E4690F83E30DBB2202B5BD11E
:10051C0004460D46904600295AD0002A5AD090F82D
:10052C003C30012B58D0012380F83C30002303646D
:10053C00222280F83E20036300F096F80746A4F8C8
:10054C002C80A4F82E80A368B3F5805F05D04FF003
:10055C000008002384F83C3016E0236913B14FF0F7
:10056C000008F6E7A8460025F3E723685B68C3F3A9
:10057C00080328F8023B03E023685B682B70013505
:10058C00E38D013B9BB2E385E38D9BB2BBB100963F
:10059C003B46002220212046FFF7E4FEF0B9002D57
:1005AC00E3D0A368B3F5805FE6D013B92369002BC1
:1005BC00E2D023685B6803F07F032B70DFE7202316
:1005CC0084F83E30002000E0022002B0BDE8F0814B
:1005DC000120FAE70120F8E70220F6E70320F4E710
:1005EC0010B504460E4B18784FF47A73B3FBF0F346
:1005FC000C4A1068B0FBF3F000F0C4FC68B90F2C87
:10060C0001D901200AE0002221464FF0FF3000F012
:10061C0085FC054B1C60002000E0012010BD00BFD4
:10062C0000000020080000200400002008B5074A44
:10063C00136843F010031360032000F05DFC0F20DF
:10064C00FFF7CEFFFFF724FE002008BD002002407C
:10065C00034A1168034B1B780B441360704700BFAF
:10066C009800002000000020014B1868704700BF64
:10067C009800002038B50446FFF7F6FF0546B4F1A4
:10068C00FF3F02D0044B1B781C44FFF7EDFF401BCF
:10069C00A042FAD338BD00BF0000002082B0084B46
:1006AC001B68084AA2FB03235B0A00FB03F00190C2
:1006BC0000BF019B5A1E0192002BF9D102B070476A
:1006CC0008000020D34D6210002800F0F18170B5B5
:1006DC0082B00446036813F0010F2CD0AA4B5B6860
:1006EC0003F00C03042B1DD0A74B5B6803F00C0329
:1006FC00082B12D06368B3F5803F41D0002B55D145
:10070C0003F1804303F504331A6822F480321A6033
:10071C001A6822F480221A6037E09B4B5B6813F452
:10072C00803FE7D0984B1B6813F4003F03D06368FD
:10073C00002B00F0BF81236813F0020F75D0924B91
:10074C005B6813F00C0F5FD08F4B5B6803F00C03EE
:10075C00082B54D02369002B00F089808B4B01228D
:10076C001A60FFF781FF0546874B1B6813F0020FD9
:10077C0074D1FFF779FF401B0228F5D903209EE1C5
:10078C00814A136843F480331360636843B3FFF703
:10079C006BFF05467C4B1B6813F4003FCBD1FFF776
:1007AC0063FF401B6428F5D9032088E1B3F5A02F23
:1007BC0009D0754B1A6822F480321A601A6822F438
:1007CC0080221A60E1E703F18043A3F53C331A68F9
:1007DC0042F480221A601A6842F480321A60D4E71C
:1007EC00FFF742FF0546684B1B6813F4003FA2D08D
:1007FC00FFF73AFF401B6428F5D903205FE1624BF9
:10080C005B6813F4803FA5D15F4B1B6813F0020F9C
:10081C0003D02369012B40F04F815B4A136823F00E
:10082C00F803616943EAC1031360236813F0080FEE
:10083C0032D0A369002B5BD0554B01221A60FFF715
:10084C0013FF0546504B5B6A13F0020F21D1FFF7E3
:10085C000BFF401B0228F5D9032030E14A4A1368EC
:10086C0023F0F803616943EAC1031360DDE7474BEA
:10087C0000221A60FFF7F8FE0546434B1B6813F085
:10088C00020FD2D0FFF7F0FE401B0228F5D903204F
:10089C0015E10120FFF702FF236813F0040F00F0AD
:1008AC009780394BDB6913F0805F33D1364BDA69B3
:1008BC0042F08052DA61DB6903F080530193019BB3
:1008CC000125344B1B6813F4807F25D0E368012B82
:1008DC0036D0002B4CD103F1804303F504331A6A54
:1008EC0022F001021A621A6A22F004021A622CE047
:1008FC00274B00221A60FFF7B7FE0546224B5B6AB6
:10090C0013F0020FC8D0FFF7AFFE401B0228F5D939
:10091C000320D4E00025D4E71E4A136843F4807307
:10092C001360FFF7A1FE06461A4B1B6813F4807F79
:10093C00CCD1FFF799FE801B6428F5D90320BEE0CB
:10094C00114A136A43F001031362E36873B3FFF7B0
:10095C008BFE06460C4B1B6A13F0020F37D1FFF7C8
:10096C0083FE801B41F288339842F3D90320A6E022
:10097C00052B11D0044B1A6A22F001021A621A6A72
:10098C0022F004021A62E0E700100240000042422A
:10099C0080044242007000404D4B1A6A42F004023F
:1009AC001A621A6A42F001021A62CEE7FFF75CFE85
:1009BC000646474B1B6A13F0020F08D0FFF754FE94
:1009CC00801B41F288339842F3D9032077E0E5B9D4
:1009DC00E369002B72D03E4A526802F00C02082ADE
:1009EC0056D0022B17D03B4B00221A60FFF73CFE6F
:1009FC000446374B1B6813F0007F47D0FFF734FEDB
:100A0C00001B0228F5D9032059E0314AD36923F0A1
:100A1C008053D361DCE72F4B00221A60FFF724FED2
:100A2C0005462B4B1B6813F0007F06D0FFF71CFE0E
:100A3C00401B0228F5D9032041E0236AB3F5803F1F
:100A4C001AD023494B6823F47413226A606A024358
:100A5C0013434B601F4B01221A60FFF705FE04463F
:100A6C001B4B1B6813F0007F0ED1FFF7FDFD001B25
:100A7C000228F5D9032022E0154A536823F40033E9
:100A8C00A1680B435360DCE7002018E0002016E05F
:100A9C00012B16D00E4B5B6803F48031226A914215
:100AAC0011D103F47013626A93420ED1002006E058
:100ABC0001207047012002E0012000E0002002B07C
:100ACC0070BD0120FBE70120F9E70120F7E700BF2B
:100ADC00001002406000424210B487B0164C94E8FB
:100AEC000F000DF1180C0CE90F00238AADF804303F
:100AFC00124B5B6803F00C02082A03D0104807B0B5
:100B0C0010BC7047C3F38342624412F8102C13F4E8
:100B1C00803F0CD0094B5B68C3F34043634413F82C
:100B2C00143C074800FB02F0B0FBF3F0E7E7054884
:100B3C0000FB02F0E3E700BF9C1A00080010024023
:100B4C0000127A0000093D00002800F0A08070B56A
:100B5C000446534B1B6803F007038B420BD2504ADD
:100B6C00136823F007030B431360136803F00703A8
:100B7C008B4240F08E80236813F0020F17D013F0D5
:100B8C00040F04D0474A536843F4E063536023686E
:100B9C0013F0080F04D0434A536843F46053536076
:100BAC00404A536823F0F003A068034353600D469A
:100BBC00236813F0010F31D06368012B20D0022B76
:100BCC0025D0384A126812F0020F64D035494A68B1
:100BDC0022F0030213434B60FFF746FD0646314BF0
:100BEC005B6803F00C036268B3EB820F16D0FFF75F
:100BFC003BFD801B41F288339842F0D9032045E03D
:100C0C00284A126812F4003FE0D101203EE0254A48
:100C1C00126812F0007FD9D1012037E0204B1B68FD
:100C2C0003F00703AB420AD91D4A136823F00703EC
:100C3C002B431360136803F00703AB422DD12368D9
:100C4C0013F0040F06D0174A536823F4E063E168ED
:100C5C000B435360236813F0080F07D0114A5368F5
:100C6C0023F46053216943EAC1035360FFF734FF57
:100C7C000C4B5B68C3F303130B4AD35CD8400B4B90
:100C8C0018600B4B1868FFF7ABFC002070BD0120FF
:100C9C0070470120FAE70120F8E70120F6E700BFD2
:100CAC000020024000100240C81E0008080000206E
:100CBC0004000020014B1868704700BF080000209A
:100CCC0008B5FFF7F7FF044B5B68C3F30223034A35
:100CDC00D35CD84008BD00BF00100240D81E0008ED
:100CEC0008B5FFF7E7FF044B5B68C3F3C223034A65
:100CFC00D35CD84008BD00BF00100240D81E0008CD
:100D0C00F0B482B000263546A0E0002A58D0012A63
:100D1C0010D1CE680EE06A4FBA4251D048D9694F13
:100D2C00BA424DD007F58037BA4249D0A7F58017A3
:100D3C00BA4245D0FF2B57D88446FF2B57D8AC006E
:100D4C00DCF800200F27A74022EA070206FA04F479
:100D5C002243CCF800204A6812F0805F75D05A4AC2
:100D6C00946944F001049461926902F001020192C9
:100D7C00019AAC08A71C554A52F8272005F0030726
:100D8C00BF004FF00F0C0CFA07FC22EA0C0C504A77
:100D9C00904232D002F58062904271D002F58062AE
:100DAC0090426FD002F58062904224D0042225E05C
:100DBC00A7F58017BA4203D007F58037BA42B9D1EC
:100DCC008A687AB1012A08D044610826B2E7CE6855
:100DDC000836AFE7CE680C36ACE704610826A9E705
:100DEC000026A7E70426A5E700F1040CA5E7A5F16A
:100DFC000804A400A4E7032200E00022BA4042EA5F
:100E0C000C020234314F47F824204A6812F4803F18
:100E1C003AD0304C22681A4322604A6812F4003FE0
:100E2C0038D02C4C62681A4362604A6812F4801FF6
:100E3C0036D0284CA2681A43A2604A6812F4001FEC
:100E4C0034D0244CE2681343E36001350B6833FA69
:100E5C0005F231D00124AC4023409C42F5D14A68C4
:100E6C00122AB7D03FF657AF022AB0D07FF64DAF5B
:100E7C00032AB5D0112A7FF45DAFCE68043659E74A
:100E8C000122BBE70222B9E7124C226822EA0302D4
:100E9C002260C2E70F4C626822EA03026260C4E778
:100EAC000C4CA26822EA0302A260C6E7094CE26875
:100EBC0022EA0303E360C8E702B0F0BC704700BF4E
:100ECC000000211000003110001002400000014011
:100EDC0000080140000401400AB101617047090497
:100EEC0001617047C36801EA030221EA030141EA88
:100EFC000241016170470000074AD36823F4E063A4
:100F0C001B041B0C000200F4E060184340F0BF60AF
:100F1C0040F40030D060704700ED00E030B4174B67
:100F2C00DB68C3F30223C3F10704042C28BF042499
:100F3C001D1D062D01D9033B00E000234FF0FF35AA
:100F4C0005FA04F421EA0401994005FA03F322EAB4
:100F5C0003031943002809DB0901C9B200F1604001
:100F6C0000F5614080F8001330BC704700F00F00B2
:100F7C000901C9B2024B1954F6E700BF00ED00E0BD
:100F8C0014ED00E00138B0F1807F0AD2064B5860B6
:100F9C00064AF02182F823100020986007221A607C
:100FAC0070470120704700BF10E000E000ED00E04A
:100FBC007047000030B589B0002404940594069461
:100FCC000794184B9A6942F010029A619A6902F0E0
:100FDC0010020192019A9A6942F020029A619A6970
:100FEC0002F020020292029A9A6942F004029A617B
:100FFC009B6903F004030393039B0B4D22464FF4B0
:10100C0000512846FFF768FF4FF400530493012367
:10101C00059306940223079304A92846FFF770FE54
:10102C0009B030BD001002400010014008B50A485C
:10103C000A4B03604FF4E133436000238360C360C9
:10104C0003610C2242618361C361FFF7BCF900B9F3
:10105C0008BDFFF78FF8FBE79C000020003801402B
:10106C0008B50A480A4B03604FF4E1334360002390
:10107C008360C36003610C2242618361C361FFF72B
:10108C00A2F900B908BDFFF775F8FBE7E0000020F6
:10109C000044004010B588B00023049305930693D8
:1010AC00079303682C4A934204D02C4A93422BD0CA
:1010BC0008B010BD2A4B9A6942F480429A619A6931
:1010CC0002F480420092009A9A6942F004029A61FA
:1010DC009B6903F004030193019B4FF40073049389
:1010EC0002230593032307931E4C04A92046FFF704
:1010FC0007FE4FF48063049300230593069304A921
:10110C002046FFF7FDFDD3E7154BDA6942F40032B8
:10111C00DA61DA6902F400320292029A9A6942F0B8
:10112C0004029A619B6903F004030393039B042359
:10113C00049302230593032307930A4C04A9204626
:10114C00FFF7DEFD0823049300230593069304A9FF
:10115C002046FFF7D5FDABE70038014000440040C6
:10116C0000100240000801400C480D490D4A0023B4
:10117C0002E0D458C4500433C4188C42F9D30A4A40
:10118C000A4C002301E013600432A242FBD3FFF7A8
:10119C000FFF00F00FF8FFF719F870470000002060
:1011AC00700000201C1F000870000020340100207B
:1011BC00FEE7000070B500260C4D0D4C641BA4100E
:1011CC00A64209D100F058FC00260A4D0A4C641BBB
:1011DC00A410A64205D170BD55F8043B98470136C2
:1011EC00EEE755F8043B98470136F2E7141F000868
:1011FC00141F0008141F0008181F0008034602449F
:10120C00934200D1704703F8011BF9E70EB46FF05D
:10121C00004100B59CB01DAB029006900791049163
:10122C000848094953F8042B0591006802A9019359
:10123C0000F068F80022029B1A701CB05DF804EBF9
:10124C0003B070470C0000200802FFFF2DE9F047A7
:10125C008E6882469E420C469146984638D8B1F824
:10126C000CC01CF4906F31D062692568096902EBDF
:10127C0042026F1A02EBD272013355103B449D426D
:10128C0038BF1D461CF4806F30D0294600F040FB5F
:10129C00064650B90C234FF0FF30CAF80030A38932
:1012AC0043F04003A381BDE8F0873A46216900F082
:1012BC00BBFAA38923F4906343F08003A3812661D6
:1012CC003E44266046466561ED1BA560464500D947
:1012DC00464632464946206800F0B4FAA36800201E
:1012EC009B1BA36023681E442660DCE72A4600F0A3
:1012FC0069FB06460028E2D12169504600F0BCFA91
:10130C00C8E700002DE9F04F1E468B899DB01B06E7
:10131C0007460D4614460ED50B6963B9402100F003
:10132C00F7FA2860286120B90C233B604FF0FF309E
:10133C00C9E040236B610023099320238DF82930E9
:10134C0030234FF0010ADFF898918DF82A3003967C
:10135C0023461E4613F8012B0AB1252AF9D1B6EB08
:10136C00040B0BD05B46224629463846FFF76EFF2E
:10137C00013000F0A380099B5B4409933378002B68
:10138C0000F09C8000234FF0FF32CDE9052301369D
:10139C00049307938DF853301A933446052214F8AE
:1013AC00011B4F4800F032FA049BC0B9D90644BF68
:1013BC0020228DF853201A0744BF2B228DF853207E
:1013CC0032782A2A13D0344600200A26079A21465E
:1013DC0011F8013B303B092B4BD970B914E0A0EB51
:1013EC0009000AFA00F0184304902646D5E7039A40
:1013FC00111D12680391002A01DB079204E052428E
:10140C0043F002030792049323782E2B0CD16378BC
:10141C002A2B33D1039B02341A1D1B680392002B19
:10142C00B8BF4FF0FF3305932E4E03222178304680
:10143C0000F0ECF938B14023801B03FA00F0049B58
:10144C0001340343049314F8011B062226488DF83B
:10145C00281000F0DBF9002838D0244B13BB039B79
:10146C00073323F0070308330393099B4344099381
:10147C006EE706FB023201200C46A8E700230A2681
:10148C00194601340593204610F8012B303A092AED
:10149C0003D9002BC8D00591C6E706FB0121012317
:1014AC000446F0E703AB00932A46114B04A93846D7
:1014BC00AFF30080B0F1FF3F8046D6D1AB895B061D
:1014CC003FF534AF09981DB0BDE8F08F03AB009326
:1014DC002A46074B04A9384600F082F8EAE700BF19
:1014EC00E01E0008E61E0008EA1E000800000000CE
:1014FC00591200082DE9F04791461F468A680B697E
:10150C0006469342B8BF1346C9F8003091F8432001
:10151C000C46DDF8208012B10133C9F80030236885
:10152C00990642BFD9F800300233C9F8003025685B
:10153C0015F0060507D104F1190AE368D9F8002063
:10154C009B1AAB4229DC94F843302268003318BF55
:10155C00012392062ED404F1430239463046C0478B
:10156C00013021D02368E56803F00603042B18BF73
:10157C000025D9F800204FF0000908BFAD1AA36868
:10158C00226908BF25EAE5759342C4BF9B1AED1882
:10159C001A344D451AD1002008E001235246394631
:1015AC003046C047013003D14FF0FF30BDE8F08723
:1015BC000135C2E73020E11881F843005A1C94F839
:1015CC0045102244023382F84310C4E7012322461B
:1015DC0039463046C0470130E6D009F10109D8E759
:1015EC002DE9F04306460C4601F14300097E85B017
:1015FC006E29984617460C9B00F0BB8024D86329B3
:10160C0039D00AD8002900F0C480582900F0928003
:10161C0004F1420584F8421035E0642901D06929AF
:10162C00F6D125681A6815F0800F02F104012CD050
:10163C0012681960002A03DA2D23524284F84330D1
:10164C00DFF8C0C10A233FE0732900F0A68008D858
:10165C006F2921D07029DBD1226842F02002226050
:10166C0003E0752918D07829D2D17822DFF898C1F7
:10167C0084F8452062E01A6804F14205111D1960D6
:10168C00136884F84230012394E0126815F0400F7F
:10169C00196018BF12B2CDE7D4F800C01A681CF05C
:1016AC00800F02F104051D6001D0126803E01CF0EC
:1016BC00400FFAD012886F290CBF08230A23DFF8D9
:1016CC0044C1002184F843106568002DA8BF21682F
:1016DC00A560A4BF21F0040121600AB9002D46D0F9
:1016EC000546B2FBF3F103FB112E1CF80EE09342FE
:1016FC0005F801ED39D9082B0BD12368DA0708D589
:10170C00236962689A42DEBF302305F8013C05F17B
:10171C00FF35401B2061CDF800803B4603AA2146D3
:10172C003046FFF7E7FE013049D14FF0FF3005B0EE
:10173C00BDE8F083DFF8CCC084F845101D68216843
:10174C0055F8042B1D600D060BD5CD0744BF41F099
:10175C00200121601AB9236823F020032360102391
:10176C00AFE74B0648BF92B2EFE70A46B9E705462A
:10177C00C1E71A68D4F800C0151D61691CF0800F10
:10178C001D60136801D0196003E01CF0400FFAD003
:10179C001980002305462361BDE71A68111D1960E5
:1017AC00156800216268284600F030F808B1401B2B
:1017BC00606063682361002384F84330ABE72369DE
:1017CC002A4639463046C0470130AED023689B07C5
:1017DC0013D4E068039B9842B8BF1846A7E70123CF
:1017EC004A4639463046C04701309ED00135E36841
:1017FC00039A9B1AAB42F2DCEBE7002504F11909C2
:10180C00F5E700BFF11E0008021F000810B5C9B2B1
:10181C0002449042034601D1002303E01C780130BE
:10182C008C42F6D1184610BD0A44914200F1FF33A8
:10183C0000D1704710B511F8014B914203F8014FDC
:10184C00F9D110BD884210B501EB020302D98342D5
:10185C001C4607D8421E994208D011F8014B02F8D9
:10186C00014FF8E783189A1A9A4200D110BD14F868
:10187C00011D03F8011DF7E738B50546002943D0D3
:10188C0051F8043C0C1F002BB8BFE41800F0D0F842
:10189C001E4A1368104633B9636014602846BDE8CD
:1018AC00384000F0CBB8A3420BD9216862189342A0
:1018BC0001BF1A685B685218226063600460EDE730
:1018CC0013465A680AB1A242FAD919685818A042AC
:1018DC000BD120680144581882421960DED110687F
:1018EC005268014419605A60D8E702D90C232B6066
:1018FC00D4E7206821188A4201BF11685268091880
:10190C00216062605C60C9E738BD00BF8C000020BC
:10191C00F8B5CD1C25F0030508350C2D38BF0C256A
:10192C00002D064601DBA94203D90C2333600020AD
:10193C00F8BD00F07DF821490A6814469CB9204F87
:10194C003B6823B92146304600F062F838602946DE
:10195C00304600F05DF8431C23D10C233046336035
:10196C0000F06CF8E3E723685B1B17D40B2B03D94F
:10197C0023601C44256004E06368A2420CBF0B602A
:10198C005360304600F05AF804F10B00231D20F090
:10199C000700C21ACCD01B1AA350C9E722466468B0
:1019AC00CCE7C41C24F00304A042E3D0211A304637
:1019BC0000F02EF80130DDD1CFE700BF8C00002005
:1019CC0090000020F8B5074614460E4621B9114682
:1019DC00BDE8F840FFF79CBF22B9FFF74DFF254645
:1019EC002846F8BD00F030F8A0420FD22146384608
:1019FC00FFF78EFF05460028F2D031462246FFF74E
:101A0C0013FF31463846FFF737FFE9E73546E7E77E
:101A1C0038B50023054C05460846236000F01EF837
:101A2C00431C02D1236803B12B6038BD2401002074
:101A3C00014800F011B800BF2C010020014800F053
:101A4C000CB800BF2C01002051F8043C181F002BCF
:101A5C00BCBF0B58C018704770477047044A054903
:101A6C001368002B08BF0B461844106018467047CB
:101A7C009400002038010020F8B500BFF8BC08BC69
:101A8C009E467047F8B500BFF8BC08BC9E46704730
:101A9C0002030405060708090A0B0C0D0E0F1010A3
:101AAC0001020000BB0003000100047E00000000E6
:101ABC000000000000000000000000000000BB005F
:101ACC0003000101057E0000000000000000000082
:101ADC000000000000000000BB0003000102067EB5
:101AEC0000000000000000000000000000000000EA
:101AFC000000BB00220000227E000000000000005D
:101B0C00000000000000000000000000BB002700E7
:101B1C0003222710837E000000000000000000005C
:101B2C00000000000000BB00280000287E00000020
:101B3C000000000000000000000000000000000099
:101B4C00BB000C00130100000020600030751FEB7F
:101B5C00705C5904E3D50D70AD7EBB000B00000B1F
:101B6C007E000000000000000000000000000000EB
:101B7C0000000000BB0012000101147E00000000F8
:101B8C000000000000000000000000000000BB008E
:101B9C003900090000000003000000084D7E000021
:101BAC000000000000000000BB0049001100000014
:101BBC000003000000042222222222222222717E13
:101BCC000000BB008200070000FFFF020080097EBE
:101BDC00000000000000000000000000BB006500D9
:101BEC00040000FFFF677E00000000000000000002
:101BFC00000000000000BB0011000200C0D37E00FA
:101C0C0000000000000000000000000000000000C8
:101C1C00BB000D00000D7E00000000000000000065
:101C2C0000000000000000000000BB000E000210CD
:101C3C0020407E00000000000000000000000000BA
:101C4C0000000000BB0007000101097E000000003D
:101C5C000000000000000000000000000000BB00BD
:101C6C00080000087E0000000000000000000000DA
:101C7C000000000000000000BB00AB000101AC7EC6
:101C8C000000000000000000000000000000000048
:101C9C000000BB00AA0000AA7E00000000000000AB
:101CAC00000000000000000000000000BB00AD00C0
:101CBC0001FFAD7E000000000000000000000000ED
:101CCC00000000000000BB00A9000605010203048F
:101CDC0005C37E00000000000000000000000000B2
:101CEC00BB00B70000B77E00000000000000000041
:101CFC0000000000000000000000BB00B60002075E
:101D0C00D08F7E00000000000000000000000000EA
:101D1C0000000000BB00B00001FFB07E000000001E
:101D2C000000000000000000000000000000BB00EC
:101D3C00F10000F17E000000000000000000000037
:101D4C000000000000000000BB00F00004030601CE
:101D5C00B0AE7E000000000000000000000000009B
:101D6C000000BB00F20000F27E000000000000004A
:101D7C00000000000000000000000000BB00F300A9
:101D8C0000F37E00000000000000000000000000D6
:101D9C000000000000000000000000000000000037
:101DAC000000000000000000000000000000000027
:101DBC00BB00170000177E000000000000000000B0
:101DCC0000000000000000000000BB001D0001022C
:101DDC00207E000000000000000000000000000059
:101DEC0000000000BB000400030101030C7E000096
:101DFC000000000000000000000000000000BB001C
:101E0C00E100050000FFFF00E47E00000000000080
:101E1C000000000000000000BB00E300050000FF14
:101E2C00FF01E77E00000000000000000000000041
:101E3C000000BB00E40000E47E0000000000000095
:101E4C00000000000000000000000000BB00E000EB
:101E5C00060000FFFF0000E47E0000000000000010
:101E6C00000000000000BB00E500080000FFFF01BF
:101E7C000140002D7E00000000000000000000006A
:101E8C00BB00D3000B0000FFFF01030000010700A3
:101E9C00E87E0000000000000000BB0027000322C9
:101EAC000014607E00000000000000000000000034
:101EBC00000000002564200A0D0000000000000056
:101ECC0000000000010203040607080900000000DE
:101EDC0001020304232D302B2000686C4C00656636
:101EEC00674546470030313233343536373839415F
:101EFC004243444546003031323334353637383975
:081F0C00616263646566000078
:041F1400310100088F
:041F18000D010008AF
:101F1C0001000000100000000024F400100000205C
:101F2C0000000000000000000000000000000000A5
:101F3C000000000000000000000000000000000095
:101F4C000000000000000000000000000000000085
:101F5C000000000000000000000000000000000075
:101F6C000000000000000000000000000000000065
:101F7C000000000000000000000000000000000055
:040000050800117569
:00000001FF
